:020000040810E2
:1000000000800410CD081008D9031008DB03100885
:10001000DD031008DF031008E103100800000000F2
:10002000000000000000000000000000E3031008D2
:10003000E503100800000000E7031008E9031008BA
:100040001D0910081D0910081D0910081D091008B8
:100050001D0910081D0910081D0910081D091008A8
:100060001D0910081D0910081D0910081D09100898
:100070001D0910081D0910081D0910081D09100888
:100080001D0910081D0910081D0910081D09100878
:100090001D0910081D0910081D0910081D09100868
:1000A0001D0910081D0910081D0910081D09100858
:1000B0001D0910081D0910081D0910081D09100848
:1000C0001D0910081D0910081D0910081D09100838
:1000D0001D0910081D0910081D0910081D09100828
:1000E0001D0910081D091008000000001D09100856
:1000F0001D0910081D0910081D0910081D09100808
:100100001D0910081D0910081D0910081D091008F7
:100110001D0910081D0910081D0910081D091008E7
:100120001D0910081D0910081D0910081D091008D7
:100130001D0910081D0910081D0910081D091008C7
:100140001D0910081D091008000000000000000033
:100150001D0910081D0910081D0910081D091008A7
:100160001D0910081D0910081D0910081D09100897
:100170001D0910081D0910081D0910081D09100887
:100180001D0910081D0910081D0910081D09100877
:100190001D0910081D0910081D0910081D09100867
:1001A0001D0910081D0910081D0910081D09100857
:1001B0001D0910081D0910081D0910081D09100847
:1001C0001D0910081D0910081D0910081D09100837
:1001D0001D0910081D0910081D0910081D09100827
:1001E0001D0910081D0910081D0910081D09100817
:1001F0001D0910081D0910081D0910081D09100807
:100200001D0910081D0910081D0910081D091008F6
:100210001D0910081D0910081D0910081D091008E6
:100220001D0910081D0910081D0910080000000014
:100230001D0910081D0910081D0910081D091008C6
:100240001D0910081D0910081D0910081D091008B6
:100250001D0910081D0910081D0910081D091008A6
:100260001D0910081D0910081D0910081D09100896
:100270001D0910081D0910081D0910081D09100886
:100280001D0910081D0910081D09100800000000B4
:080290001D0910081D091008EA
:100298000348044B834202D0034B03B1184770470D
:1002A800100000101000001000000000054806496A
:1002B8000B1AD90F01EBA301491002D0034B03B16C
:1002C80018477047100000101000001000000000D0
:1002D80010B5064C237843B9FFF7DAFF044B13B186
:1002E8000448AFF300800123237010BD10000010F4
:1002F800000000002009100808B5044B1BB1044990
:100308000448AFF30080BDE80840CFE700000000D4
:10031800140000102009100870B50D4E0D4D761B05
:10032800B61006D0002455F8043B01349847A6427D
:10033800F9D1094E094D761B00F0EEFAB61006D039
:10034800002455F8043B01349847A642F9D170BD02
:1003580048091008480910084C09100848091008ED
:1003680000B583B0174BD3F8E02042F00072C3F811
:10037800E020D3F8E03003F000730193019B0120E3
:1003880000F0A6F900F004FA01220221002000F092
:10039800A7F90D4B1B68C3F30313072B09D00B4AAE
:1003A800D2F8143143F00103C2F8143100F022FAF4
:1003B800FEE7064AD2F8043143F00103C2F80431DB
:1003C800F4E700BF0044025800ED00E00064025862
:1003D800FEE7FEE7FEE7FEE7FEE770477047704777
:1003E80008B500F055FA08BD82B0074BD3F8F420E1
:1003F80042F00202C3F8F420D3F8F43003F0020309
:100408000193019B02B07047004402580649CB682B
:1004180023F4E0631B041B0C000200F4E0600343B8
:10042800024A1A43CA60704700ED00E00000FA056E
:1004380000B5174BDB68C3F30223C3F1070CBCF10B
:10044800040F28BF4FF0040C03F1040EBEF1060F91
:1004580014D9033B4FF0FF3E0EFA0CFC21EA0C01C5
:1004680099400EFA03F322EA03031943002807DB35
:100478000901C9B2074B19545DF804FB0023E9E7E9
:1004880000F00F000901C9B2034B1954F4E700BF8B
:1004980000ED00E000E400E014ED00E00138B0F108
:1004A800807F0BD24FF0E0235861054AF02182F893
:1004B80023100020986107221A61704701207047B5
:1004C80000ED00E0044B1B68C3F30313072B01D0B6
:1004D800012070470320704700ED00E0744B1B6952
:1004E80003F03803102B00F0DE80182B10D00BB16E
:1004F800704870476E4B1B6813F0200F00F0D580D2
:100508006B4B1868C0F3C1006B4B23FA00F07047BF
:1005180010B4674A916A01F00301946AC4F30510A4
:10052800D36A03F0010C536BC3F3CC030CFB03F346
:1005380007EE903AF8EE677A14F47C7F00F0938027
:10054800012965D0022900F09180E1B107EE100A77
:10055800F8EE476A9FED596A86EE267A544B1B6B74
:10056800C3F3080306EE903AF8EE666A9FED546A04
:1005780067EE867A76EEA77AF7EE006A77EEA67AC5
:1005880027EE277A60E0136813F0200F23D0114676
:100598001268C2F3C102484BD34007EE103AF8EE96
:1005A800476A07EE100AB8EE476A86EE867A0B6B42
:1005B800C3F3080306EE903AF8EE666A9FED406AC8
:1005C80067EE867A76EEA77AF7EE006A77EEA67A75
:1005D80027EE277A38E007EE100AF8EE476A9FED13
:1005E800396A86EE267A324B1B6BC3F3080306EE94
:1005F800903AF8EE666A9FED326A67EE867A76EE92
:10060800A77AF7EE006A77EEA67A27EE277A1BE03C
:1006180007EE100AF8EE476A9FED286A86EE267AFA
:10062800234B1B6BC3F3080306EE903AF8EE666A99
:100638009FED236A67EE867A76EEA77AF7EE006A70
:1006480077EEA67A27EE277A194B1B6BC3F346235E
:10065800013307EE903AF8EE677AC7EE276AFCEEA8
:10066800E67A17EE900A5DF8044B704707EE100A19
:10067800F8EE476A9FED146A86EE267A0C4B1B6BE0
:10068800C3F3080306EE903AF8EE666A9FED0C6A2B
:1006980067EE867A76EEA77AF7EE006A77EEA67AA4
:1006A80027EE277AD0E7094870470348704700BF0C
:1006B8000044025800093D000090D0030024744A09
:1006C800000000390024744C20BCBE4B40787D01EA
:1006D800024A136903431361704700BF006502585B
:1006E80038B50D46284C236823F0010303432360E3
:1006F8005AB1012A25D0FFF7E5FE03283ED0224A49
:10070800536923F00403536138BDFFF7DBFE032868
:10071800FAD1236923F0010323611C4A136943F0CA
:1007280004031361BFF34F8FBFF36F8F012D06D002
:1007380020BF164A136923F004031361E4E730BFAE
:10074800F7E7FFF7BFFE0128DED10F4A536923F010
:10075800020353610D4A136943F004031361BFF3A5
:100768004F8FBFF36F8F012D06D020BF074A136943
:1007780023F004031361C7E730BFF7E7024A1369A0
:1007880023F004031361BFE70048025800ED00E0BE
:1007980008B5FFF797FE032802D040BF20BF08BD69
:1007A80020BFFCE7104B1B780BB90120704710B530
:1007B80004464FF47A70B0FBF3F30C4A1068B0FBB0
:1007C800F3F0FFF76BFE68B90F2C01D901200AE09E
:1007D800002221464FF0FF30FFF72AFE044B1C6031
:1007E800002000E0012010BD0000001008000010EB
:1007F8000400001010B582B01F4CD4F8D83043F470
:100808008043C4F8D830D4F8D83003F48043019337
:10081800019B1A4AD2F80014194B0B4043F40143C8
:10082800C2F80034D2F8003443F00103C2F80034AF
:100838000320FFF7EBFDFFF751FEA369C3F3032382
:10084800104AD35C03F01F03D840A36903F00F03D9
:10085800D35C03F01F03D8400B4B18600B4B186098
:100868000020FFF79FFF18B10124204602B010BDF9
:100878000446FFF7B9FDF8E700440258004002407B
:10088800FF00F0FF380910080C00001008000010E5
:10089800034B1B78034A11680B441360704700BF71
:1008A800000000102C000010054BD3F8882042F4FB
:1008B8007002C3F888201A6942F010021A61704762
:1008C80000ED00E0DFF834D0FFF7EEFF0C480D49EB
:1008D8000D4A002302E0D458C4500433C4188C4293
:1008E800F9D30A4A0A4C002301E013600432A242F9
:1008F800FBD3FFF711FDFFF733FD704700800410AD
:10090800000000101000001050091008100000101E
:1009180030000010FEE70000F8B500BFF8BC08BCC6
:100928009E467047F8B500BFF8BC08BC9E467047A5
:10093800000000000102030401020304060708097D
:04094800010310088F
:04094C00D9021008B4
:1009500001000000100000000090D0030090D003C0
:04000005081008CD0A
:00000001FF
