:020000040800F2
:1000000000000220C14F0008F5200008F72000087A
:10001000F9200008FB200008FD2000080000000077
:10002000000000000000000000000000FF200008A9
:10003000012100080000000003210008052100083C
:10004000115000081150000811500008115000080C
:1000500011500008115000081150000811500008FC
:1000600011500008115000081150000811500008EC
:1000700011500008115000081150000811500008DC
:1000800011500008115000081150000811500008CC
:1000900011500008115000081150000811500008BC
:1000A00011500008115000081150000811500008AC
:1000B000115000081150000811500008115000089C
:1000C000115000081150000811500008115000088C
:1000D000115000081150000811500008115000087C
:1000E00011500008115000080000000011500008D5
:1000F000115000081150000811500008115000085C
:10010000115000081150000811500008115000084B
:10011000115000081150000811500008115000083B
:10012000115000081150000811500008115000082B
:10013000115000081150000811500008115000081B
:1001400011500008115000080000000000000000DD
:1001500011500008115000081150000811500008FB
:1001600011500008115000081150000811500008EB
:1001700011500008115000081150000811500008DB
:1001800011500008115000081150000811500008CB
:1001900011500008115000081150000811500008BB
:1001A00011500008115000081150000811500008AB
:1001B000115000081150000811500008115000089B
:1001C000115000081150000811500008115000088B
:1001D000115000081150000811500008115000087B
:1001E000115000081150000811500008115000086B
:1001F000115000081150000811500008115000085B
:10020000115000081150000811500008115000084A
:10021000115000081150000811500008115000083A
:100220001150000811500008115000080000000093
:10023000115000081150000811500008115000081A
:10024000115000081150000811500008115000080A
:1002500011500008115000081150000811500008FA
:1002600011500008115000081150000811500008EA
:1002700011500008115000081150000811500008DA
:100280001150000811500008115000080000000033
:08029000115000081150000894
:100298000348044B834202D0034B03B1184770470D
:1002A80050080020500800200000000005480649BA
:1002B8000B1AD90F01EBA301491002D0034B03B16C
:1002C8001847704750080020500800200000000020
:1002D80010B5064C237843B9FFF7DAFF044B13B186
:1002E8000448AFF300800123237010BD500800209C
:1002F800000000008868010808B5044B1BB10449D8
:100308000448AFF30080BDE80840CFE700000000D4
:10031800540800208868010870B50D4E0D4D761BF5
:10032800B61006D0002455F8043B01349847A6427D
:10033800F9D1094E094D761B16F0A2FAB61006D06F
:10034800002455F8043B01349847A642F9D170BD02
:10035800E8A70308E8A70308ECA70308E8A7030829
:10036800830730B548D0541E002A3FD0CAB203468E
:1003780001E0013C3AD303F8012B9D07F9D1032C86
:100388002DD9CDB245EA05250F2C45EA054536D9C4
:10039800A4F1100222F00F0C03F1200EE6444FEAFC
:1003A800121C03F1100242E9045542E902551032C9
:1003B8007245F8D10CF1010214F00C0F03EB021294
:1003C80004F00F0C13D0ACF1040323F0030304333F
:1003D800134442F8045B9342FBD10CF003042CB1A4
:1003E800CAB21C4403F8012B9C42FBD130BD6446C1
:1003F8001346002CF4D1F9E703461446BFE71A4622
:10040800A446E0E7FEE700BF03685A004CBF43F08C
:10041800004323F000431844704700BF2DE9F84318
:1004280029B34F1E044615463E464FF0000808EB18
:10043800060101EBD171491004EBC1094846FFF7E9
:10044800E3FF0346C80008308F42204409D0AB427E
:1004580009D8FFF7D9FF0138A8420AD201F10108EB
:10046800E5E7AB4205D9884501D04E1EDFE74FF0DE
:1004780000094846BDE8F883012807D0022807D0BC
:10048800044B00280CBF18460020704702487047EC
:1004980002487047590B00085D0B0008610B000803
:1004A80030B5234B83B004468D1E3BB301A92846C3
:1004B800AFF30080E8B101992A46FFF7AFFF014684
:1004C800B8B1FFF7A1FF4B68A064012B2CD0002B1B
:1004D80001F1040024DBFFF797FF0023C4E91303AD
:1004E8000368002B11DBFFF78FFF2061002003B0AA
:1004F80030BD00230920236103B030BD0D4B0E49E8
:10050800C91AC91018460191D6E7C3F30360FFF76B
:10051800B3FF0028206114BF0020092003B030BDBC
:100528000123C4E91303DBE7002323610520DEE789
:100538000000000020A70308E8A703080368DA07FB
:1005480010B5044606D49B0700F1480009D500F011
:100558005BFC2368590709D51A070ED5DB0613D5A6
:1005680010BD00F049FC23685907F5D404F1D00008
:1005780000F052FC23681A07F0D404F5A87000F0C4
:1005880053FC2368DB06EBD404F5E870BDE81040A3
:1005980000F08EBC092070470346006800B118447B
:1005A800704700BF704700BF70B504460E46316CF7
:1005B8002046FFF775FF054688B9326C62612369EA
:1005C80032462146012098470828F0D0072806D14E
:1005D8002846316CFFF7E6FF301D00F001FC00F003
:1005E8007DFE00BF2DE9F0470D1DD0F80C80D0F836
:1005F8001890074614460FCDADF5727D0DF10C0C21
:10060800ACE80F000FCDACE80F000FCDACE80F0041
:1006180095E80F0002AE4FF0000E8CE80F00C6F808
:1006280000E020E0336C7B614FF4F07231467AA829
:1006380000F06CFE3B697AAA394650469847889B79
:1006480073642146CDE9006905463B463A460120D8
:10065800C0470446E0B94FF4F0727AA9304600F07A
:1006680055FE082D1AD1316C3846FFF719FF0934A9
:100678005FFA84FA05460028D4D0B36B73643A460F
:10068800CDE900693B464AF010010120C04700B19E
:10069800092528460DF5727DBDE8F087072DF7D1AD
:1006A8002046316CFFF77EFF03A800F099FB00BFDE
:1006B800406C7047F0B5CB6B0B6401F1040C0E462F
:1006C8000546BCE80F00F9B001AC0FC4BCE80F0048
:1006D8000FC4BCE80F000FC49CE80F004FF0FF37B1
:1006E80084E80F00009706E02B696A462946984778
:1006F8000828044608D110992846FFF7D1FE00289B
:10070800F2D0092079B0F0BD6846FFF717FF062C34
:10071800F7D131462846FFF747FF00BFC160D96BC4
:1007280082611964002219465CE700BF70B5C6688B
:1007380043690B64AEB903690A4604460D4601468F
:1007480002209847072805D008280FD129462046B7
:10075800FFF72AFF3046296CFFF724FF281D00F019
:100768003FFB0122FFF73EFF00F0B8FD00F0B6FDA9
:10077800C2681AB1CA6B0A64002233E79AE700BF5D
:10078800704700BF836801460BB1012018477047C6
:10079800012912D009D873B90F2A0CD800EB8202AC
:1007A80018465368009A136070470339012994BFAB
:1007B800012002207047022070470846704700BF9A
:1007C80000B585B00A46002303A900911946FFF732
:1007D800DFFF039805B05DF804FB00BF012912D0C4
:1007E80009D873B90F2A0CD800EB8200009A126856
:1007F8004260184670470339012994BF012002203E
:100808007047022070470846704700BF10B584B093
:10081800002303AC039200940A461946FFF7DEFF53
:1008280004B010BD70B5D36B136402F1040C054617
:100838000C46BCE80F00ADF50E7D0DF15C0EAEE880
:100848000F00BCE80F00AEE80F00BCE80F00AEE8F0
:100858000F009CE80F004FF0FF368EE80F00169649
:1008680010E0FFF7D3FF214616A8A847034616AAAB
:100878006946082083B9049B9847052806460CD08A
:10088800092809D026996846FFF70AFE03466A46F2
:100898000C2116A8002BE4D0092616A8FFF74EFE57
:1008A80030460DF50E7D70BD2DE9F04FCC6C89B04A
:1008B8001E4654F8043B06940D46174600F00308FC
:1008C800002E79D01A0C1B0405938DF81D200223E5
:1008D800D2B204EB82048DF81C302B6DB8F1020FF4
:1008E80008BFAC6B13F001030CD005A9384600F023
:1008F80079FB18B9082009B0BDE8F08F092009B0C4
:10090800BDE8F08FD4F800A0BAF1000FEDD0019344
:1009180000F008030293022E4AD0B4F800A0B4F8FD
:1009280002900434AB6C29F0010B0F2138469B442C
:10093800FFF746FF834539D82AF001039B448345D6
:1009480094BF002001204FEA490303F002030AF094
:10095800010A43EA0A03012B49D0022B32D0002BAB
:10096800CCD1B8F1000F02D0002840F0CD8004347B
:10097800D4F800A0BAF1000FCDD105A9384600F08F
:1009880031FB0028BAD1019B002BB3D00F21384688
:10099800FFF716FF0E2102463846FFF737FF3846A5
:1009A8006A4A0F21FFF732FF0720A8E70020CAE7AD
:1009B800D4F804900834B5E71B0205930323ADF877
:1009C8001C308AE7236823F0004BB8F1000F45D1AB
:1009D80028B1029A002A5CD0BBF1000F74D0002B1A
:1009E80000DA04340BF1010B04EB8B04C0E7B8F117
:1009F800000F19D1B0B163682268991C4FEAD2720E
:100A08003FF47CAF05F158010133049100F0908068
:100A1800201DFFF7C1FD04AB01462846AFF3008057
:100A280000285BD10834A3E70D213846D5F820907B
:100A3800FFF7C6FE8145F5D1AB6A9C42F2D120464C
:100A4800FFF7E2FC0F2102463846FFF7DFFE384683
:100A58002A460021FFF7DAFE072050E70D21384625
:100A6800D5F82090FFF7ACFE814501D02368B6E7A2
:100A7800AB6A9C42FAD104230022C5E90B23E31890
:100A8800C5F828B06B632368002B59DB0123019359
:100A9800A8E705F15803CDF80C8004F1040AB04624
:100AA80091461E460EE050460496FFF775FD00225B
:100AB800014604AB284609F101090AF1040AAFF31B
:100AC8000080E0B9D945EED10D213846FFF778FE10
:100AD800049BAC62C5E90803062010E781460D2196
:100AE8003846FFF76DFEB9F1020F286225D12B4673
:100AF800049A43F82C2F6B62AC620620FFE6464648
:100B08002368DDF80C806AE72046FFF77DFC043493
:100B18000246AC6328461446AFF3008000283FF431
:100B2800EDAE384622460F21FFF770FE0720E6E6B5
:100B38000D213846FFF744FE2862049B6B62DBE711
:100B48000BF1010004EB80007AE700BF0000000011
:100B58000023A9E60123A7E60223A5E62DE9F04331
:100B68000646C3B015461C46042900F2BF80DFE8DC
:100B780001F09E57BD2D0300002C40F0B780102ACD
:100B880000F2B4800368D80600F1F98020AF384637
:100B980000F098F9B46B394600234FF0010C0CFAB9
:100BA80003F22A42204603F1010303D050F8042B34
:100BB8000A600446042B01F10401F0D13846B463FD
:100BC80000F076F9002043B0BDE8F083032C40F034
:100BD8008D8094B204EB1243102B4FEA124500F2B9
:100BE800858003681F0700F1D28020AF384600F0E7
:100BF8003DF9B26B07EBC50154B10B46D01A01EBB6
:100C0800C401E4001D5843F8045B8B42FAD1224426
:100C18003846B26300F008F9002043B0BDE8F0831D
:100C2800012C4FEA124895B25CD0052C5ED108EB36
:100C38000509B9F1200F59D8B8F10F0F79D9A9468C
:100C4800002D40F08A80B36B6DB320AF4FF00009E0
:100C580007EBC807043F03EBC50553F8041B47F827
:100C6800041FAB42F9D1B9F1000F0FD06F464146CE
:100C7800102938BF102107EBC101843903EBC905DE
:100C880053F8040B41F8040FAB42F9D1012C00F0E2
:100C98008680B8F10F0FB56347D9B9F1000F02D0BC
:100CA800684600F0B9F8002043B0BDE8F083ECB91D
:100CB800806B23461FFA82FC0124371D04FA03F2D5
:100CC80012EA0C0F014604D051F8042B47F82320F0
:100CD80008460133102BF1D115F40055E3D1B06368
:100CE800284604E008EB0503102B03D9022043B083
:100CF800BDE8F083B8F10F0FF8D83368DA0706D5E6
:100D0800304623F0030340F8483B00F079F820AF61
:100D1800384600F075F8B36B002D97D11D460435A1
:100D2800B563384600F068F8BDE720A800F06CF815
:100D3800B3E7B9F1100F40D9A9F110093368D90701
:100D480008D523F00103304643F0020340F8483B3E
:100D580000F05EF8B9F1000F32D033685A0720D49A
:100D6800B8F10F0F25D96F463846C8F1100500F0C5
:100D780057F8002DB36B7FF77AAF20AF68E723F001
:100D88001003336006F5E87000F09CF8FEE623F0E7
:100D98000803036000F5A87000F068F825E720AFA5
:100DA800BDE7304623F0040340F8D03B00F038F8A4
:100DB800D6E720A800F02CF8D5E74FF00009BDE7EA
:100DC800B8F10F0F3FF63FAF20AF384600F020F8DC
:100DD800B36B002D7FF43AAF384600F015F862E7A0
:100DE80000F1340191E838009C46A6464CF8045DB1
:100DF80090E8FF0FE54600BD90EC210B704700BF5F
:100E080080EC210B704700BF90EC200B704700BFAF
:100E180080EC200B704700BFD0EC200B704700BF60
:100E2800C0EC200B704700BFF0EC0201F0EC02119F
:100E3800F0EC0221F0EC0231F0EC0241F0EC02514E
:100E4800F0EC0261F0EC0271F0EC0281F0EC02913E
:100E5800F0EC02A1F0EC02B1F0EC02C1F0EC02D12E
:100E6800F0EC02E1F0EC02F1704700BFE0EC0201A7
:100E7800E0EC0211E0EC0221E0EC0231E0EC02418E
:100E8800E0EC0251E0EC0261E0EC0271E0EC02817E
:100E9800E0EC0291E0EC02A1E0EC02B1E0EC02C16E
:100EA800E0EC02D1E0EC02E1E0EC02F1704700BFB7
:100EB800B0FC0181B0FC0191B0FC01A1B0FC01B112
:100EC800704700BFA0FC0181A0FC0191A0FC01A11A
:100ED800A0FC01B1704700BFEC4600B52DE90050F9
:100EE8002DE9FF1F4FF000032DE90C0001A9FFF7C2
:100EF800E1FBDDF840E012B0704700BFEC4600B5FA
:100F08002DE900502DE9FF1F4FF000032DE90C00DB
:100F180001A9FFF70BFCDDF840E012B0704700BFF5
:100F2800EC4600B52DE900502DE9FF1F4FF00003F6
:100F38002DE90C0001A9FFF71BFCDDF840E012B019
:100F4800704700BFEC4600B52DE900502DE9FF1FA2
:100F58004FF000032DE90C0001ABFFF7DFFBDDF8D4
:100F680040E012B0704700BFEC4600B52DE90050D4
:100F78002DE9FF1F4FF000032DE90C0001AAFFF730
:100F880051FCDDF840E012B0704700BF027A03461A
:100F98007AB9427AA2B14168013A10B4427208683B
:100FA80003220C1D1A7202025C60000E10BC1A604B
:100FB80070470068013A1A7202021A60000E704700
:100FC800B020704700B585B0002303AA00921946E7
:100FD8000C22FFF7DDFB039805B05DF804FB00BFAA
:100FE800F0E700BF2DE9F043054685B00E464FF007
:100FF80000083046FFF7CAFFB028044600F0BA8060
:10100800070620D500F0F003802B4DD0902B36D06A
:10101800A02B60D0B02B74D0C02B00F08B8000F0D8
:10102800F803D02B0BD100F007020132052342F45C
:10103800002201212846FFF791FD0028D9D0092078
:1010480005B0BDE8F0838300DBB21F1D0DF10C096C
:1010580000231946CDF800900D222846FFF798FB8B
:10106800039BCDF8009060064CBFDF1BFF180023E0
:101078000D22194628460397FFF7B0FBB9E700F0A1
:101088000D030D2BDBD003AF002300F00F02194630
:1010980000972846FFF77CFB002300970D2219468E
:1010A8002846FFF79BFBA4E73046FFF76FFF2402B3
:1010B8002043B0F5004FC2D004010023A2B2194664
:1010C8002846FFF74BFD0028B9D114F4004F18BF8C
:1010D8004FF001088DE7C24302F007034FF47F6227
:1010E8001A41010702F47F624FF0000348BF42F43F
:1010F800804219462846FFF731FD00283FF479AFB2
:101108009DE7B1283BD0B22800F09380B32841D0A6
:1011180000F0FC03B42B92D000F007020132012347
:1011280042F4002219462846FFF718FD00283FF42C
:1011380060AF84E7C6284AD0C72854D000F0F80327
:10114800C02B63D0C82868D0C9287FF478AF304650
:10115800FFF71CFF020300F00F0002F470220130B9
:101168000243012105232846FFF7F8FC00283FF435
:1011780040AF64E7B8F1000F18D0002060E73046B0
:10118800FFF704FF024600283FF459AF10F0F003C0
:10119800C8D054E73046FFF7F9FE020300F00F030A
:1011A800013302F470221A430123BBE703AC434620
:1011B8000E22414600942846FFF7EAFA0094434677
:1011C8000F2241462846FFF709FB404638E73046DC
:1011D800FFF7DCFE020300F00F03013302F4702274
:1011E8001A4303239EE73046FFF7D0FE0246002845
:1011F8003FF425AF10F0F0037FF421AF0421284617
:10120800FFF7ACFC00283FF4F4AE18E700F00F023B
:101218000132032342F4202284E73046FFF7B6FE6A
:1012280000F0F00200F00F031032013343EA0232FB
:1012380097E700230DF10C090D221946CDF800900F
:101248002846FFF7A5FA3046FFF7A0FE02064FF042
:1012580002040CD5039B00F07F00A04018440390C3
:101268003046FFF793FE030604F10704F2D4039B0C
:10127800CDF8009000F07F02A24003F501731A44F4
:101288000023039219460D222846FFF7A7FAB0E675
:1012980010B5C26C536884B04FF0030C08321C02BE
:1012A80008461B0E01A9019402928DF80CC08DF816
:1012B8000D30FFF797FE04B010BD00BF08B5FFF76B
:1012C8008FFE806C08BD00BF08B5FFF789FEC06CB3
:1012D800C379023300EB830008BD00BF08B50620C0
:1012E80000F010FA0120FFF78DF800BF024B01460D
:1012F800186800F007B900BF00000020024B014643
:10130800186800F09DB800BF00000020844641EA3C
:10131800000313F003036DD1403A41D351F8043B65
:1013280040F8043B51F8043B40F8043B51F8043BB7
:1013380040F8043B51F8043B40F8043B51F8043BA7
:1013480040F8043B51F8043B40F8043B51F8043B97
:1013580040F8043B51F8043B40F8043B51F8043B87
:1013680040F8043B51F8043B40F8043B51F8043B77
:1013780040F8043B51F8043B40F8043B51F8043B67
:1013880040F8043B51F8043B40F8043B51F8043B57
:1013980040F8043B51F8043B40F8043B403ABDD2C6
:1013A800303211D351F8043B40F8043B51F8043B68
:1013B80040F8043B51F8043B40F8043B51F8043B27
:1013C80040F8043B103AEDD20C3205D351F8043BF7
:1013D80040F8043B043AF9D2043208D0D2071CBFC3
:1013E80011F8013B00F8013B01D30B8803806046EC
:1013F800704700BF082A13D38B078DD010F0030362
:101408008AD0C3F10403D21ADB071CBF11F8013BD1
:1014180000F8013B80D331F8023B20F8023B7BE720
:10142800043AD9D3013A11F8013B00F8013BF9D24B
:101438000B7803704B7843708B78837060467047E5
:10144800002958D030B551F8043C83B0002BA1F1E5
:101458000404B8BFE418019000F00CFA284A019877
:10146800136833B1A3420DD9216804EB010C63451D
:101478002FD06360146003B0BDE8304000F0FCB9C1
:10148800A34210D81A465B68002BF9D1116802EB09
:10149800010C644519D02FD36360546003B0BDE8D4
:1014A800304000F0E9B9116802EB010CA44516D0F0
:1014B80022D8216804EB010C6345EDD11D685B68F7
:1014C8002944C4E900135460D5E72368194411601E
:1014D800D1E71D685B682944C4E90013CAE724689A
:1014E80021445418A3421160C5D1D3E900432144D3
:1014F800C2E90013BFE770470C230360BBE700BFD6
:101508006C080020F8B5CD1C25F0030508350C2D16
:1015180038BF0C25002D064623DBA94221D8254FCC
:1015280000F0A8F93A6822B3144603E0636822463B
:10153800FBB11C4623685B1BF8D40B2B15D86368DA
:1015480094420CBF3B605360304600F095F904F1BB
:101558000B00231D20F00700C21A01D01B1AA3504C
:10156800F8BD0C2333600020F8BD23601C442560BF
:10157800EAE77968C9B12946304600F01DF8431CEE
:101588000CD0C41C24F00304A04205D0211A304614
:1015980000F012F8013001D02560D5E70C23304661
:1015A800336000F069F90020F8BD304600F004F817
:1015B8007860E0E76C08002038B5074D0022044643
:1015C80008462A6000F06AF9431C00D038BD2B6831
:1015D800002BFBD0236038BD7408002038B5446C5C
:1015E8000CB1002038BD80210546FFF78BFF02466D
:1015F800686430B1031F7C3243F8044F9342FBD137
:10160800EFE74FF0FF3038BD1F29F8B5054608D879
:10161800466C0C4617464EB156F8240046F824701E
:10162800F8BD162303604FF0FF30F8BD8021FFF7A7
:1016380069FF0646686440B1031F00F17C0500217C
:1016480043F8041F9D42FBD1E6E74FF0FF30F8BD99
:101658001F2938B5054620D8426C0C466AB152F8A5
:10166800213053B1012B16D0591C10D0002520462B
:1016780042F824509847284638BD284600F0F8F824
:10168800224601462846BDE8384000F0DBB816235C
:101698000360012038BD002038BD162303604FF0D9
:1016A800FF3038BD1F292AD8426C38B50C4605468C
:1016B80082B152F8243002EB84024BB1591C19D084
:1016C800012B15D00025204615609847284638BDBF
:1016D800012038BD8021FFF715FF0246686458B124
:1016E800031F00217C3043F8041F9842FBD1E0E738
:1016F800032038BD022038BD4FF0FF3038BD4FF011
:10170800FF30704738B5144B1F281D681FD86A6C06
:10171800044662B152F820304BB1012B15D0591C48
:101728000FD0002542F820509847284638BD284653
:1017380000F09EF8224601462846BDE8384000F0F1
:1017480081B816232B60012038BD002038BD162330
:101758002B604FF0FF3038BD00000020124B1F28CF
:1017680070B51E6808D80D46716C044649B151F829
:10177800240041F8245070BD162333604FF0FF3029
:1017880070BD80213046FFF7BDFE0146706440B150
:10179800031F00F17C0C002243F8042F6345FBD1A2
:1017A800E5E74FF0FF3070BD0000002038B50B4B67
:1017B8001D686C6C0CB1002038BD80212846FFF7ED
:1017C800A1FE686438B1031F00F17C0243F8044F9E
:1017D8009342FBD1EFE74FF0FF3038BD0000002007
:1017E80038B5174B1F281D6826D86A6C044682B185
:1017F80052F8243002EB84024BB1591C1AD0012B49
:1018080016D00025204615609847284638BD012087
:1018180038BD80212846FFF775FE0246686458B136
:10182800031F00217C3043F8041F8342FBD1DFE70C
:10183800032038BD022038BD4FF0FF3038BD00BF4F
:101848000000002070B50C46084D034600262046CF
:1018580011461C462E6000F019F8431C00D070BDDC
:101868002B68002BFBD0236070BD00BF74080020DC
:1018780000F004B8704700BF704700BF024B582201
:101888001A604FF0FF30704774080020024B58224E
:101898001A604FF0FF30704774080020044A054969
:1018A8001368002B08BF0B46184410601846704791
:1018B80078080020081600202DE9F04F8DB000248C
:1018C8000794089409940A940B94674BD3F8E02082
:1018D80042F00402C3F8E020D3F8E02002F004024A
:1018E8000192019AD3F8E02042F00102C3F8E02007
:1018F800D3F8E02002F001020292029AD3F8E02025
:1019080042F00202C3F8E020D3F8E02002F002021D
:101918000392039AD3F8E02042F00802C3F8E020CB
:10192800D3F8E02002F008020492049AD3F8E020E9
:1019380042F04002C3F8E020D3F8E02002F0400271
:101948000592059AD3F8E02042F01002C3F8E0208F
:10195800D3F8E03003F010030693069BDFF81481F8
:10196800224644F20101404602F0D6FBDFF808B1F6
:1019780022464FF48061584602F0CEFB22460221EF
:101988003A4802F0C9FB4FF40059CDF81C9008946E
:101998000994374F07A9384602F0AEFA3223079365
:1019A8000225089509940A940B260B9607A9384630
:1019B80002F0A2FA86230793089509940A940B96D5
:1019C800DFF8B8A007A9504602F096FA44F20103DE
:1019D80007930127089709940A9407A9404602F03B
:1019E8008BFACDF81C90089509940A940B9607A9D0
:1019F800404602F081FA4FF48063079308970994F0
:101A08000A9407A9584602F077FA802307934FF4FF
:101A180088130893099408F5A05807A9404602F0CE
:101A28006BFA4FF4C8530793089509940A940A234C
:101A38000B9307A9504602F05FFA4FF4205307931F
:101A4800089509940A940B9607A9404602F054FA9F
:101A58000795089709940A9407A9044802F04CFAD4
:101A68000DB0BDE8F08F00BF0044025800100258C6
:101A78000008025800040258000C025800000258DE
:101A880008B564238AB20146014803F079F808BD15
:101A98007C08002010B5094C00220121204602F0E4
:101AA8003BFB00224FF48041204602F035FB002228
:101AB8000221034802F030FB10BD00BF00040258A9
:101AC8000010025830B583B0FFF7E4FF6423012209
:101AD80001A9114803F0BCF80446104D01224FF447
:101AE8008041284602F018FB00224FF48041284626
:101AF80002F012FB642002F0DFFB9DF80430482B53
:101B0800E4D1002CE2D16423012201A9024803F0A8
:101B180037F803B030BD00BF7C080020000402582D
:101B280000B585B0FFF7B6FF01220221204802F078
:101B3800F3FA4FF4FA73082201A91E4803F088F853
:101B480058BB9DF807209DF806301B0443EA026342
:101B58009DF8052043EA02239DF8042013439DF8CD
:101B68000B109DF80A20120442EA01629DF8091040
:101B780042EA01229DF808000F490968024341F82A
:101B8800232041238DF80C306423012203A909483E
:101B980002F0F6FF05B05DF804FB45238DF80C3024
:101BA8006423012203A9034802F0EAFFF2E700BF19
:101BB800001002587C0800206400002000B583B0A3
:101BC800FFF768FF012211461C4802F0A5FA4FF4FE
:101BD800FA7304220DEB0201194803F039F810B129
:101BE80003B05DF804FB9DF807209DF806301B0440
:101BF80043EA02639DF8052043EA02239DF8042086
:101C08001343104A126852F823108DF8001052F846
:101C18002310090A8DF8011052F82310090C8DF8C9
:101C2800021052F823301B0E8DF80330642304226F
:101C38006946034802F0A4FFD2E700BF0004025837
:101C48007C0800206400002010B50D4C01221146CC
:101C5800204602F061FA002202210A4802F05CFAEA
:101C680000224FF48041204602F056FA4FF41872D1
:101C78004FF44A714FF0105003F011FA10BD00BF35
:101C8800000402580010025810B50D4C0022012122
:101C9800204602F041FA012202210A4802F03CFAE9
:101CA80000224FF48041204602F036FA4FF41872B1
:101CB8004FF44A714FF0105003F075FA10BD00BF91
:101CC800000402580010025810B50C4C00220121E3
:101CD800204602F021FA00220221094802F01CFAEB
:101CE80001224FF48041204602F016FA4FF4187191
:101CF8004FF44A7003F0A6FB10BD00BF0004025861
:101D08000010025810B50A4C01221146204602F074
:101D180003FA00220221074802F0FEF901224FF4DB
:101D28008041204602F0F8F90A2003F053FC10BD68
:101D3800000402580010025810B52DED028BB0EEC9
:101D4800408AF0EE608A0D4C01221146204602F0CE
:101D5800E3F9002202210A4802F0DEF901224FF4D9
:101D68008041204602F0D8F9F0EE680AB0EE480A41
:101D78000A2003F0BFFDBDEC028B10BD0004025821
:101D88000010025810B50A4C01221146204602F0F4
:101D9800C3F901220221074802F0BEF901224FF4DB
:101DA8008041204602F0B8F903F000FF10BD00BFE3
:101DB800000402580010025800B583B001A804F0CE
:101DC8004DF8642304220DEB0201034802F0D8FE0B
:101DD80003B05DF804FB00BF7C08002072B6FEE784
:101DE80008B51548154B03604FF461234360002381
:101DF8008360C36003610C2242618361C361036233
:101E08004362836203F014F870B900210A4803F0B2
:101E180088F858B90021084803F0A8F840B90648DE
:101E280003F060F830B908BDFFF7D8FFFFF7D6FF19
:101E3800FFF7D4FFFFF7D2FF7C08002000480040DE
:101E480000B59DB04C22002109A8FEF789FA20228E
:101E5800002101A8FEF784FA042002F07BF9002390
:101E680000931E4BDA6A22F00102DA62DB6A03F0A1
:101E7800010300931A4A936923F4404343F48043CF
:101E88009361936903F440430093009B144B9B694F
:101E980013F4005FFAD00223099301230C93402323
:101EA8000D930023129309A800F0E6F990B93F2397
:101EB800019300230293039304930593402206920F
:101EC80007930893012101A800F02AFE20B91DB04C
:101ED8005DF804FBFFF782FFFFF780FF000400585E
:101EE8000048025830B585B04FF6FF7300E013463E
:101EF8007A4A126812F4004F03D05A1E002BF6DCFF
:101F08001346002B1ADB02F097F9FFF799FF734B82
:101F1800D3F8E02042F00072C3F8E020D3F8E030B4
:101F280003F000730193019B002002F0FBF80021ED
:101F3800084602F007F94FF6FF7302E0FFF74EFF7D
:101F48001346664A126812F4004F03D15A1E002B3A
:101F5800F6DC1346002B17DBFFF7AEFCFFF740FF5C
:101F68005F4C00220121204602F0D6F800224FF4EF
:101F78008041204602F0D0F800220221594802F0A0
:101F8800CBF8FFF79FFD05E0FFF728FFFFF7C8FD37
:101F9800FFF780FD4FF4FA7301226946524802F0B8
:101FA80057FE0028F6D19DF80030433B242BEFD88C
:101FB80001A252F823F000BF5B200008991F000817
:101FC800991F0008991F000855200008991F00084C
:101FD800991F0008991F0008991F0008991F0008F9
:101FE800991F0008991F0008991F0008991F0008E9
:101FF800991F0008C9200008951F0008991F0008AC
:10200800991F0008991F0008991F0008991F0008C8
:10201800991F0008991F0008991F0008991F0008B8
:10202800991F0008991F0008991F0008991F0008A8
:10203800991F0008991F0008991F0008991F000898
:10204800991F0008991F0008DF200008FFF7B6FD58
:102058009EE74FF4FA7308220DEB0201224802F0C2
:10206800F7FD9DF80B209DF80A301B0443EA026334
:102078009DF8092043EA02239DF808401C439DF877
:102088000F209DF80E301B0443EA02639DF80D20D3
:1020980043EA02239DF80C501D43FFF7D5FDFFF7D7
:1020A800F3FDFFF711FE07EE905AF8EEE70A07EE88
:1020B800904AB8EEE70AFFF73FFEFFF763FE67E7CF
:1020C800FFF7C2FDFFF7E0FDFFF7FEFDFFF71AFE81
:1020D800FFF758FE5CE7FFF76FFE59E70044025828
:1020E80000040258001002587C080020FEE7FEE7B2
:1020F800FEE7FEE7FEE770477047704708B502F055
:10210800C9F808BD82B0074BD3F8F42042F00202A8
:10211800C3F8F420D3F8F43003F002030193019BD1
:1021280002B070470044025810B5B8B00446002108
:1021380033913491359136913791C02202A8FEF738
:102148000FF922681B4B9A4201D038B010BD022209
:102158000023CDE9022302A800F07EFF38BB164B0E
:10216800D3F8E82042F48022C3F8E820D3F8E82026
:1021780002F480220092009AD3F8E02042F008028C
:10218800C3F8E020D3F8E03003F008030193019B83
:102198004FF44073339302233493002335933693DB
:1021A8000723379333A9054801F0A6FECDE7FFF7CB
:1021B80015FED4E70048004000440258000C0258BD
:1021C8000649CB6823F4E0631B041B0C000200F4EF
:1021D800E0600343024A1A43CA60704700ED00E01A
:1021E8000000FA0500B5174BDB68C3F30223C3F1FF
:1021F800070CBCF1040F28BF4FF0040C03F1040EC8
:10220800BEF1060F14D9033B4FF0FF3E0EFA0CFC4B
:1022180021EA0C0199400EFA03F322EA0303194359
:10222800002807DB0901C9B2074B19545DF804FB04
:102238000023E9E700F00F000901C9B2034B195464
:10224800F4E700BF00ED00E000E400E014ED00E07A
:102258000138B0F1807F0BD24FF0E0235861054A76
:10226800F02182F823100020986107221A61704734
:102278000120704700ED00E0002800F0398338B5F0
:102288000446036813F0010F25D0944A136903F03C
:102298003803926A102B15D0182B0FD06368B3F54A
:1022A800803F3FD0002B53D18C4B1A6822F48032E8
:1022B8001A601A6822F480221A6038E002F00302D9
:1022C800022AEBD1854B1B6813F4003F03D06368E7
:1022D800002B00F00F83236813F0020F00F0A18099
:1022E8007E4A1369926A13F038035AD0182B55D0D6
:1022F800E368002B00F0DE8078490A6822F01902B2
:1023080013430B6001F0D2FF0546744B1B6813F0B2
:10231800040F40F0AD8001F0C9FF401B0228F4D93A
:102328000320EEE26D4A136843F480331360636858
:102338002BB301F0BBFF0546684B1B6813F4003F45
:10234800C9D101F0B3FF401B6428F5D90320D8E2B6
:10235800B3F5A02F09D0614B1A6822F480321A60B5
:102368001A6822F480221A60E1E75C4B1A6842F48A
:1023780080221A601A6842F480321A60D7E701F0A6
:1023880095FF0546554B1B6813F4003FA3D001F099
:102398008DFF401B6428F5D90320B2E212F0030F29
:1023A800A6D14E4B1B6813F0040F03D0E368002B33
:1023B80000F0A282494A136823F01903E1680B432D
:1023C800136001F073FF0546444B1B6813F0040FBC
:1023D80006D101F06BFF401B0228F5D9032090E2DB
:1023E80001F07EFF41F20303984212D82269402A85
:1023F80007D03A494B6823F47C3343EA02334B60F5
:102408000FE0364A536823F47C3343F400335360B7
:1024180007E0324A536823F0FE43216943EA016327
:102428005360236813F0100F00F088802B4A13695B
:1024380003F03803926A082B56D0182B50D0E36962
:10244800002B00F0B880254A136843F0800313601E
:1024580001F02CFF0546214B1B6813F4807F40F0E8
:10246800888001F023FF401B0228F4D9032048E2AA
:1024780001F036FF41F20303984212D82269402A3C
:1024880007D016494B6823F47C3343EA02334B6088
:10249800C7E7124A536823F47C3343F4003353608C
:1024A800BFE70E4A536823F0FE43216943EA0163FC
:1024B8005360B6E7094A136823F00103136001F07B
:1024C800F5FE0546054B1B6813F0040FA9D001F073
:1024D800EDFE401B0228F5D9032012E20044025801
:1024E80002F00302012AAAD1A14B1B6813F4807FD2
:1024F80003D0E369802B40F0018201F0F1FE41F244
:102508000303984212D8226A202A07D098494B68B8
:1025180023F0F84343EA82634B600FE0944A536820
:1025280023F0F84343F08043536007E0904AD368B0
:1025380023F07C53216A43EA0163D360236813F0D4
:10254800080F60D06369002B49D0894A536F43F064
:102558000103536701F0AAFE0546854B5B6F13F034
:10256800020F50D101F0A2FE401B0228F5D903202A
:10257800C7E101F0B5FE41F20303984212D8226A7E
:10258800202A07D07A494B6823F0F84343EA82634C
:102598004B60D3E7764A536823F0F84343F080430F
:1025A8005360CBE7724AD36823F07C53216A43EA2D
:1025B8000163D360C2E76E4A136823F08003136097
:1025C80001F074FE05466A4B1B6813F4807FB5D092
:1025D80001F06CFE401B0228F5D9032091E1644A02
:1025E800536F23F00103536701F060FE0546604B0B
:1025F8005B6F13F0020F06D001F058FE401B022853
:10260800F5D903207DE1236813F0200F29D0A369B1
:102618009BB1574A136843F48053136001F046FE98
:102628000546534B1B6813F4005F1AD101F03EFEB8
:10263800401B0228F5D9032063E14D4A136823F4AF
:102648008053136001F032FE0546494B1B6813F4B2
:10265800005F06D001F02AFE401B0228F5D90320AE
:102668004FE1236813F0040F21D1636A002B00F0B7
:1026780047813F4A126902F03802182A00F0EE80BA
:10268800022B79D03A4A136823F08073136001F063
:102698000DFE0446364B1B6813F0007F00F0DC800B
:1026A80001F004FE001B0228F4D9032029E1314A75
:1026B800136843F48073136001F0F8FD05462D4B51
:1026C8001B6813F4807F06D101F0F0FD401B6428DD
:1026D800F5D9032015E1A368012B0AD00BBB244BC5
:1026E8001A6F22F001021A671A6F22F004021A67A1
:1026F80004E01F4A136F43F001031367A36833B361
:1027080001F0D4FD05461A4B1B6F13F0020FACD134
:1027180001F0CCFD401B41F288339842F3D90320E5
:10272800EFE0052B09D0124B1A6F22F001021A674D
:102738001A6F22F004021A67E0E70D4B1A6F42F095
:1027480004021A671A6F42F001021A67D6E701F00D
:10275800ADFD0546064B1B6F13F0020F85D001F047
:10276800A5FD401B41F288339842F3D90320C8E005
:102778000044025800480258694A136823F08073DD
:10278800136001F093FD0546654B1B6813F0007F4D
:1027980006D001F08BFD401B0228F5D90320B0E0DC
:1027A8005F4B996A5F4A0A40A16AE06A41EA0011F0
:1027B8000A439A62226B013AC2F30802616B01393B
:1027C800490289B20A43A16B0139090401F4FE01E7
:1027D8000A43E16B0139090601F0FE410A431A6315
:1027E800DA6A22F00102DA62596B4F4A0A40A16C98
:1027F80042EAC1025A63DA6A22F00C02216C0A43E7
:10280800DA62DA6A22F00202616C0A43DA62DA6A90
:1028180042F48032DA62DA6A42F40032DA62DA6A60
:1028280042F48022DA62DA6A42F00102DA621A6855
:1028380042F080721A6001F039FD0446384B1B687B
:1028480013F0007F06D101F031FD001B0228F5D9F5
:10285800032056E0002054E0002052E0304A916AFC
:10286800106B012B4ED001F00303A26A93424BD1A7
:10287800C1F30511E36A994248D1C0F30802236BFA
:10288800013B9A4244D1C0F34622636B013B9A4212
:1028980040D1C0F30642A36B013B9A423CD1C0F33E
:1028A8000660E36B013B984238D11D4B5B6BC3F369
:1028B800CC03A26C9A4201D1002022E0184AD36AC4
:1028C80023F00103D36201F0F1FC054601F0EEFCB0
:1028D800A842FBD0124A516B134B0B40A16C43EA40
:1028E800C1035363D36A43F00103D362002008E0B5
:1028F80001207047012004E0012002E0012000E0EF
:10290800002038BD0120FCE70120FAE70120F8E7A4
:102918000120F6E70120F4E70120F2E70120F0E7C3
:10292800004402580CFCFFFF0700FFFF744B1B69B3
:1029380003F03803102B00F0DE80182B10D00BB1F9
:10294800704870476E4B1B6813F0200F00F0D5805D
:102958006B4B1868C0F3C1006B4B23FA00F070474B
:1029680010B4674A916A01F00301946AC4F3051030
:10297800D36A03F0010C536BC3F3CC030CFB03F3D2
:1029880007EE903AF8EE677A14F47C7F00F09380B3
:10299800012965D0022900F09180E1B107EE100A03
:1029A800F8EE476A9FED596A86EE267A544B1B6B00
:1029B800C3F3080306EE903AF8EE666A9FED546A90
:1029C80067EE867A76EEA77AF7EE006A77EEA67A51
:1029D80027EE277A60E0136813F0200F23D0114602
:1029E8001268C2F3C102484BD34007EE103AF8EE22
:1029F800476A07EE100AB8EE476A86EE867A0B6BCE
:102A0800C3F3080306EE903AF8EE666A9FED406A53
:102A180067EE867A76EEA77AF7EE006A77EEA67A00
:102A280027EE277A38E007EE100AF8EE476A9FED9E
:102A3800396A86EE267A324B1B6BC3F3080306EE1F
:102A4800903AF8EE666A9FED326A67EE867A76EE1D
:102A5800A77AF7EE006A77EEA67A27EE277A1BE0C8
:102A680007EE100AF8EE476A9FED286A86EE267A86
:102A7800234B1B6BC3F3080306EE903AF8EE666A25
:102A88009FED236A67EE867A76EEA77AF7EE006AFC
:102A980077EEA67A27EE277A194B1B6BC3F34623EA
:102AA800013307EE903AF8EE677AC7EE276AFCEE34
:102AB800E67A17EE900A5DF8044B704707EE100AA5
:102AC800F8EE476A9FED146A86EE267A0C4B1B6B6C
:102AD800C3F3080306EE903AF8EE666A9FED0C6AB7
:102AE80067EE867A76EEA77AF7EE006A77EEA67A30
:102AF80027EE277AD0E7094870470348704700BF98
:102B08000044025800093D000090D0030024744A94
:102B1800000000390024744C20BCBE4B40787D0175
:102B2800002800F0328170B50D4604469B4B1B68A7
:102B380003F00F038B420BD2984A136823F00F035C
:102B48000B431360136803F00F038B4240F01F819F
:102B5800236813F0040F0CD02269914B9B6903F092
:102B680070039A4205D98E498B6923F070031A4382
:102B78008A61236813F0080F0CD06269884BDB69FF
:102B880003F070039A4205D98549CB6923F0700395
:102B98001A43CA61236813F0100F0CD0A269804B46
:102BA800DB6903F4E0639A4205D97D49CB6923F4D4
:102BB800E0631A43CA61236813F0200F0CD0E2695E
:102BC800774B1B6A03F070039A4205D974490B6A64
:102BD80023F070031A430A62236813F0020F0CD023
:102BE800E2686F4B9B6903F00F039A4205D96C4961
:102BF8008B6923F00F031A438A61236813F0010FCE
:102C080041D0674A936923F47063A1680B439361C9
:102C18006368022B0AD0032B27D0012B2CD0604AE3
:102C2800126812F0040F06D10120ADE0126812F408
:102C3800003F00F0AE805A490A6922F007021343A8
:102C48000B6101F033FB0646554B1B6903F0380353
:102C58006268B3EBC20F16D001F028FB801B41F26B
:102C680088339842F0D903208EE04D4A126812F05A
:102C7800007FE0D1012087E0494A126812F4807F82
:102C8800D9D1012080E0236813F0020F0CD0E2684C
:102C9800434B9B6903F00F039A4205D240498B6965
:102CA80023F00F031A438A613C4B1B6803F00F03A0
:102CB800AB420AD9394A136823F00F032B43136038
:102CC800136803F00F03AB4265D1236813F0040FB8
:102CD8000CD02269324B9B6903F070039A4205D2EB
:102CE8002F498B6923F070031A438A61236813F014
:102CF800080F0CD062692A4BDB6903F070039A4213
:102D080005D22749CB6923F070031A43CA612368A7
:102D180013F0100F0CD0A269214BDB6903F4E063B8
:102D28009A4205D21E49CB6923F4E0631A43CA616B
:102D3800236813F0200F0CD0E269194B1B6A03F0CB
:102D480070039A4205D216490B6A23F070031A439E
:102D58000A62FFF7EBFD12498B69C3F30323114A9B
:102D6800D35C03F01F03D8408B6903F00F03D35CD7
:102D780003F01F0320FA03F30B4A13600B4B186090
:102D88000B4B186801F030FA70BD01207047012024
:102D9800FAE70120F8E70120F6E700BF002000521B
:102DA80000440258A0680108740000207000002048
:102DB8006C00002008B5FFF7B9FD0B4A9369C3F30F
:102DC80003230A49CB5C03F01F0320FA03F392693B
:102DD80002F00F02885C00F01F0023FA00F0044A9A
:102DE8001060044A136008BD00440258A068010836
:102DF800740000207000002008B5FFF7DBFF054BCA
:102E0800DB69C3F30213044AD35C03F01F03D84001
:102E180008BD00BF00440258A068010808B5FFF7C4
:102E2800C9FF054BDB69C3F30223044AD35C03F0F3
:102E38001F03D84008BD00BF00440258A06801081D
:102E4800404B9B6A03F00303032B79D070B505460A
:102E58000E463C4A136823F08063136001F026FA9B
:102E68000446384B1B6813F0006F06D001F01EFAB9
:102E7800031B022BF5D9032070BD324B9A6A22F44A
:102E88007C32296842EA01329A626A68013AC2F3DE
:102E98000802A9680139490289B20A43E968013977
:102EA800090401F4FE010A4329690139090601F000
:102EB800FE410A439A63DA6A22F0C00269690A434A
:102EC800DA62DA6A22F02002A9690A43DA62DA6A67
:102ED80022F01002DA62D96B1B4A0A40E96942EA19
:102EE800C102DA63DA6A42F01002DA62C6B91A4637
:102EF800DB6A43F40023D362124A136843F0806309
:102F0800136001F0D3F904460E4B1B6813F0006FF1
:102F180014D101F0CBF9001B0228F5D90320ABE747
:102F2800012E05D0074AD36A43F40013D362E3E7BE
:102F3800044AD36A43F48013D362DDE700209BE799
:102F480001207047004402580700FFFF404B9B6A6E
:102F580003F00303032B79D070B505460E463C4AAF
:102F6800136823F08053136001F0A0F90446384B2E
:102F78001B6813F0005F06D001F098F9031B022BC1
:102F8800F5D9032070BD324B9A6A22F07C72296809
:102F980042EA01529A626A68013AC2F30802A968D1
:102FA8000139490289B20A43E9680139090401F47F
:102FB800FE010A4329690139090601F0FE410A4365
:102FC8001A64DA6A22F4406269690A43DA62DA6AE0
:102FD80022F40072A9690A43DA62DA6A22F480727A
:102FE800DA62596C1B4A0A40E96942EAC1025A642A
:102FF800DA6A42F48072DA62C6B91A46DB6A43F4C6
:103008008003D362124A136843F08053136001F0BF
:103018004DF904460E4B1B6813F0005F14D101F004
:1030280045F9001B0228F5D90320ABE7012E05D08E
:10303800074AD36A43F08073D362E3E7044AD36A4A
:1030480043F40003D362DDE700209BE701207047CB
:10305800004402580700FFFFF8B50446036813F060
:10306800006F30D0836EB3F5001F26D00ED8EBB1B9
:10307800B3F5801F07D102210830FFF7E1FE0546AE
:1030880045B12E4621E0012635461EE0B3F5401F26
:1030980009D10025984A136D23F44013A16E0B4300
:1030A8001365002611E0012635460EE0924AD36AE0
:1030B80043F40033D3620025ECE702212830FFF700
:1030C80045FF0546DCE700263546236813F4807F74
:1030D80014D0A36D042B32D8DFE803F003232A08A9
:1030E8000800854AD36A43F40033D36255BB824A49
:1030F800136D23F00703A16D0B431365236813F4C5
:10310800007F31D0E36D802B4CD020D8002B43D0EA
:10311800402B19D1002104F10800FFF791FE054664
:103128001AE0002104F10800FFF78AFE0546DDE7F2
:10313800002104F12800FFF709FF0546D6E701261C
:103148003546DBE72E46D9E7012635460CE0C02B8D
:1031580002D0B3F5807F1CD15DBB674A136D23F4A1
:10316800E073E16D0B431365236813F4806F46D059
:10317800D4F8A830B3F5800F39D01FD88BB3B3F586
:10318800001F18D1002104F10800FFF759FE054679
:103198001AE001263546E7E7574AD36A43F4003375
:1031A800D362D9E7002104F12800FFF7CFFE0546D6
:1031B800D2E72E46D8E70126354620E0B3F5C00F02
:1031C80002D0B3F5000F09D1C5B94B4A936D23F46A
:1031D8006003D4F8A8100B43936510E00126354628
:1031E8000DE0454AD36A43F40033D362ECE700218B
:1031F80004F12800FFF7AAFE0546E5E72E462368F6
:1032080013F4006F24D0D4F8AC30B3F1007F42D06F
:103218000ED8002B39D0B3F1807F06D1002104F1FC
:103228000800FFF70DFE054608E0012635460FE0C9
:10323800B3F1407F02D0B3F1806F23D1002D31D19B
:103248002D4A936D23F0E063D4F8AC100B439365DB
:10325800236813F0007F2ED0E36C202B40D026D8B3
:1032680033B1102B20D1244AD36A43F40033D362FC
:10327800002D3CD1204AD36C23F03003E16C0B4382
:10328800D36418E001263546E2E71B4AD36A43F4C3
:103298000033D362D2E7002104F12800FFF756FE7D
:1032A8000546CBE72E46D3E70126354603E0302B0B
:1032B800DED001263546236813F4805F2DD0236EB7
:1032C800B3F5005F4FD019D8002B46D0B3F5805F17
:1032D8000FD1002104F10800FFF7B2FD054613E005
:1032E800022104F10800FFF7ABFD0546C0E72E46B2
:1032F800E1E70126354610E000440258B3F5405F87
:1033080002D0B3F5804F25D1002D33D1774A136D04
:1033180023F4E043216E0B431365236813F4005F25
:1033280038D0636EB3F5003F53D028D843B1B3F516
:10333800803F21D1012104F10800FFF781FD0546F6
:10334800002D4DD1694A136D23F4E023616E0B43C0
:1033580013651FE001263546DFE7644AD36A43F464
:103368000033D362D0E7002104F12800FFF7EEFD17
:103378000546C9E72E46D0E7012635460AE0B3F5EB
:10338800802FDDD0B3F5A02FDAD0B3F5403FD7D0EA
:1033980001263546236813F4804F31D0D4F8B03075
:1033A800B3F1005F45D020D843B1B3F1805F19D1A4
:1033B800012104F10800FFF743FD0546002D3FD128
:1033C8004A4A936D23F0E043D4F8B0100B43936559
:1033D80016E0012104F12800FFF7B8FD0546AFE724
:1033E8002E46D7E7012635460AE0B3F1804FE5D0EF
:1033F800B3F1A04FE2D0B3F1405FDFD001263546EC
:10340800236813F4004F09D0236FB3F1805F19D0FC
:10341800B3F1005F24D0D3B101263546236813F0F9
:10342800807F33D0A36C032B5BD8DFE803F027221F
:103438005327012104F12800FFF788FD0546BDE761
:103448002E46DDE7294AD36A43F40033D36275B9BF
:10345800264A136D23F04053216F0B431365DDE7B4
:10346800012104F10800FFF7EBFC0546EFE72E46C3
:10347800D4E71E4AD36A43F40033D362A5BB1B4A80
:10348800D36C23F00303A16C0B43D364236813F4B8
:10349800800F2DD1236813F0010F00F0A580E36F92
:1034A800282B00F29F80DFE803F08D9D9D9D9D9D58
:1034B8009D9D879D9D9D9D9D9D9D969D9D9D9D9D51
:1034C8009D9D8D9D9D9D9D9D9D9D8D9D9D9D9D9D44
:1034D8009D9D8D00022104F10800FFF7B1FC05460F
:1034E800CCE701263546D1E72E46CFE700440258FF
:1034F800914A136843F48073136000F0D7FE0746BF
:103508008D4B1B6813F4807F05D100F0CFFEC01BE4
:103518006428F5D90325002D4AD1884B1B6FD4F8B0
:10352800B420534013F4407F0CD0844B1A6F22F41C
:103538004072196F41F480311967196F21F4803195
:1035480019671A67D4F8B430B3F5807F15D08DBBEE
:10355800D4F8B43003F44072B2F5407F1ED0774AF5
:10356800136923F47C53136174490B6FD4F8B420A6
:10357800C2F30B0213430B678CE700F097FE074674
:103588006E4B1B6F13F0020FE1D100F08FFEC01BD2
:1035980041F288339842F3D90325D8E7674802698E
:1035A80022F47C52664901EA131313430361DBE7F3
:1035B8002E466FE72E466DE7012104F10800FFF75C
:1035C8003FFC0546E5B95D4A536D23F03803E16FCA
:1035D8000B43536508E0012104F12800FFF7B6FC0E
:1035E8000546EFE701263546236813F0020F17D08A
:1035F800A36F052B28D8DFE803F00B05200B0B0B76
:103608002E46F1E7012104F10800FFF719FC0546F1
:10361800EDB94A4A536D23F00703A16F0B43536575
:10362800236813F0040F23D0D4F89430052B45D821
:10363800DFE803F0150F3D151515012104F12800E9
:10364800FFF784FC0546E3E701263546E8E72E4602
:10365800E6E7012104F10800FFF7F2FB054685BB08
:10366800364A936D23F00703D4F894100B439365FF
:10367800236813F0200F34D0D4F89030B3F1005FF2
:103688004ED023D843B1B3F1805F1CD1002104F19F
:103698000800FFF7D5FB0546002D48D1274A536D92
:1036A80023F0E043D4F890100B43536519E001214F
:1036B80004F12800FFF74AFC0546D0E70126354605
:1036C800D6E72E46D4E7012635460AE0B3F1804F07
:1036D800E2D0B3F1A04FDFD0B3F1405FDCD00126D8
:1036E8003546236813F0400F37D0D4F89C30B3F533
:1036F800006F53D026D843B1B3F5806F19D100219C
:1037080004F10800FFF79CFB0546002D4DD10B4A3C
:10371800936D23F4E053D4F89C100B4393651CE09D
:10372800022104F12800FFF711FC0546B4E72E46F4
:10373800D7E70126354610E00048025800440258F1
:10374800CFFFFF00B3F5805FDFD0B3F5A05FDCD01B
:10375800B3F5406FD9D001263546236813F0800FA2
:1037680033D0D4F8A030B3F5804F00F0A38021D82F
:1037780043B1B3F5005F1AD1002104F10800FFF747
:103788005FFB0546002D40F09C80814A936D23F431
:103798006043D4F8A0100B43936516E0022104F1AE
:1037A8002800FFF7D3FB0546AFE72E46D5E70126ED
:1037B80035460AE0B3F5004FE4D0B3F5204FE1D029
:1037C800B3F5C04FDED001263546236813F0080F45
:1037D8000CD0D4F88430B3F5805F74D06C4A536D44
:1037E80023F44053D4F884100B435365236813F033
:1037F800100F0CD0D4F89830B3F5807F6CD0644AA1
:10380800936D23F44073D4F898100B4393652368A1
:1038180013F4002F0BD0D4F8A430B3F5803F74D044
:10382800B3F5003F67D0002B5FD0012635462368EB
:1038380013F4802F0CD0D4F88830B3F5001F7CD057
:10384800B3F5401F6FD0B3F5801F67D0012635460A
:10385800236813F4803F08D0236D002B76D0B3F58E
:10386800803F00F0818001263546236813F0005F11
:1038780040F08380236813F4003F00F08E80D4F872
:103888008030B3F5807F00F0EC8040F28380B3F5A0
:10389800007F03D0B3F5407F40F0E180002D40F079
:1038A800E6803B4A536D23F44073D4F880100B43F1
:1038B800536572E0022104F12800FFF747FB054633
:1038C80060E72E4681E7022104F12800FFF73EFB5E
:1038D800002883D0012681E7022104F12800FFF7A0
:1038E80035FB00288BD0012689E7002104F1080068
:1038F800FFF7A6FA05467DB9254A936D23F44033B0
:10390800D4F8A4100B43936591E7022104F1280031
:10391800FFF71CFB0546EEE72E4688E71C4AD36AEC
:1039280043F40033D3627DB9194A536D23F440132D
:10393800D4F888100B4353658AE7012104F1280065
:10394800FFF704FB0546EEE72E4681E7104AD36AE7
:1039580043F40033D36275B90D4AD36C23F4803332
:10396800216D0B43D36480E7022104F10800FFF7BF
:1039780067FA0546EFE72E4677E7022104F12800AB
:10398800FFF7E4FA00283FF475AF012672E700BF9D
:1039980000440258002B81D00126236813F4801FAD
:1039A80006D04F4A136D23F00043616F0B43136534
:1039B800236813F0805F07D0494A136923F48043D2
:1039C800D4F8B8100B431361236813F4001F06D012
:1039D800434A136D23F08073E16E0B43136523682C
:1039E80013F0804F09D03E4B1A6922F400421A6145
:1039F8001A69D4F8BC100A431A612368002B06DA46
:103A0800374AD36C23F04053616D0B43D36423686A
:103A180013F4000F07D0324A536D23F44003D4F84F
:103A28008C100B435365636813F0010F21D1636851
:103A380013F0020F26D1636813F0040F2BD16368CB
:103A480013F0080F30D1636813F0100F35D1636895
:103A580013F0200F3AD106B101263046F8BD0126F1
:103A68009BE71F4AD36A43F40033D36216E72E4616
:103A780093E7002104F10800FFF7E2F90028D6D007
:103A88000646D4E7012104F10800FFF7D9F9002818
:103A9800D1D00646CFE7022104F10800FFF7D0F99C
:103AA8000028CCD00646CAE7002104F12800FFF719
:103AB8004DFA0028C7D00646C5E7012104F12800C1
:103AC800FFF744FA0028C2D00646C0E7022104F1F5
:103AD8002800FFF73BFA0028BDD00646BBE700BF29
:103AE8000044025808B5FFF765F9054B1B6AC3F394
:103AF8000213044AD35C03F01F03D84008BD00BF7B
:103B080000440258A068010810B5774A916A946A7F
:103B1800C4F3053ED36AC3F3001CD36BC3F3CC03D1
:103B28000CFB03F314F47C3F00F0D88001F0030190
:103B380007EE903AF8EE677A012965D0022900F07D
:103B4800B080E1B107EE10EAB8EE477A9FED676AF8
:103B5800C6EE076A644B9B6BC3F3080307EE103A83
:103B6800B8EE477A9FED626A67EE867A77EE277A33
:103B7800B7EE007A77EE877A66EEA76A60E0136898
:103B880013F0200F23D011461268C2F3C102594B1B
:103B9800D34007EE103AB8EE477A06EE90EAB8EE50
:103BA800666AC7EE066A8B6BC3F3080307EE103A22
:103BB800B8EE477A9FED4E6A67EE867A77EE277AF7
:103BC800B7EE007A77EE877A66EEA76A38E007EEF6
:103BD80010EAB8EE477A9FED486AC6EE076A424B8C
:103BE8009B6BC3F3080307EE103AB8EE477A9FEDD4
:103BF800406A67EE867A77EE277AB7EE007A77EE34
:103C0800877A66EEA76A1BE007EE10EAB8EE477AF5
:103C18009FED366AC6EE076A334B9B6BC3F3080306
:103C280007EE103AB8EE477A9FED316A67EE867A6A
:103C380077EE277AB7EE007A77EE877A66EEA76A8C
:103C4800294A936BC3F3462307EE103AB8EE477A36
:103C5800B7EE006A37EE067AC6EE877AFCEEE77AA8
:103C6800C0ED007A936BC3F3064307EE103AB8EE43
:103C7800477A37EE067AC6EE877AFCEEE77AC0ED29
:103C8800017A936BC3F3066307EE903AF8EE677A0E
:103C980077EE867A86EEA77ABCEEC77A80ED027A4E
:103CA80010BD07EE10EAB8EE477A9FED146AC6EE2B
:103CB800076A0D4B9B6BC3F3080307EE103AB8EE87
:103CC800477A9FED0B6A67EE867A77EE277AB7EE2A
:103CD800007A77EE877A66EEA76AB1E70023036079
:103CE80043608360DCE700BF004402580024744A44
:103CF800000000390090D0030024744C20BCBE4B57
:103D080010B5774A916A946AC4F3055ED36AC3F31F
:103D1800002C536CC3F3CC030CFB03F314F07C7F2F
:103D280000F0D88001F0030107EE903AF8EE677AC8
:103D3800012965D0022900F0B080E1B107EE10EA50
:103D4800B8EE477A9FED676AC6EE076A644B1B6C4C
:103D5800C3F3080307EE103AB8EE477A9FED626A9C
:103D680067EE867A77EE277AB7EE007A77EE877A6B
:103D780066EEA76A60E0136813F0200F23D011469F
:103D88001268C2F3C102594BD34007EE103AB8EE9D
:103D9800477A06EE90EAB8EE666AC7EE066A0B6CDA
:103DA800C3F3080307EE103AB8EE477A9FED4E6A60
:103DB80067EE867A77EE277AB7EE007A77EE877A1B
:103DC80066EEA76A38E007EE10EAB8EE477A9FED8C
:103DD800486AC6EE076A424B1B6CC3F3080307EE3A
:103DE800103AB8EE477A9FED406A67EE867A77EE2A
:103DF800277AB7EE007A77EE877A66EEA76A1BE035
:103E080007EE10EAB8EE477A9FED366AC6EE076A03
:103E1800334B1B6CC3F3080307EE103AB8EE477A2E
:103E28009FED316A67EE867A77EE277AB7EE007AE9
:103E380077EE877A66EEA76A294A136CC3F346239E
:103E480007EE103AB8EE477AB7EE006A37EE067A10
:103E5800C6EE877AFCEEE77AC0ED007A136CC3F3FE
:103E6800064307EE103AB8EE477A37EE067AC6EE02
:103E7800877AFCEEE77AC0ED017A136CC3F3066328
:103E880007EE903AF8EE677A77EE867A86EEA77AAA
:103E9800BCEEC77A80ED027A10BD07EE10EAB8EEE4
:103EA800477A9FED146AC6EE076A0D4B1B6CC3F385
:103EB800080307EE103AB8EE477A9FED0B6A67EEF3
:103EC800867A77EE277AB7EE007A77EE877A66EE0B
:103ED800A76AB1E70023036043608360DCE700BFA3
:103EE800004402580024744A000000390090D003AE
:103EF8000024744C20BCBE4BF0B583B000236BE0AB
:103F080085685E000324B44025EA0405CC68B44003
:103F18002C438460446824EA0C0C4C68C4F30014F5
:103F28009C4044EA0C04446068E0DD08083550F819
:103F3800256003F007044FEA840C0F2404FA0CF4FC
:103F480026EA040E0C6904FA0CF444EA0E0440F85C
:103F580025406BE0092400E0002404FA0EF42C4309
:103F68000CF1020C694D45F82C404FF0B04425681F
:103F7800D44325EA02064F6817F4801F01D042EAAD
:103F880005064FF0B0452E606D6804EA05064F68D7
:103F980017F4001F01D042EA05064FF0B0456E60E5
:103FA800D5F8845004EA05064F6817F4003F01D09D
:103FB80042EA05064FF0B045C5F88460D5F8805050
:103FC8002C404E6816F4803F01D042EA05044FF0B9
:103FD800B042C2F8804001330A6832FA03F400F0B4
:103FE80092804FF0010C0CFA03FC1CEA0202F2D09A
:103FF8004C6804F00304013C012C81D94C6804F09E
:104008000304032C0CD0C4685D004FF0030C0CFAB9
:1040180005FC24EA0C0C8C68AC4044EA0C04C4602F
:104028004C6804F00304022C3FF47FAF04684FEAA5
:10403800430E4FF0030C0CFA0EFC24EA0C0C4C68EF
:1040480004F0030404FA0EF444EA0C0404604C6817
:1040580014F4403FBFD02E4CD4F8F45045F002057C
:10406800C4F8F450D4F8F44004F002040194019C1C
:104078004FEA930C0CF10205244C54F8255003F038
:1040880003044FEA840E0F2404FA0EF425EA04050B
:10409800204CA0423FF460AF04F58064A04222D0D7
:1040A80004F58064A04220D004F58064A0421ED0AC
:1040B80004F58064A0421CD004F58064A0421AD0A4
:1040C80004F58064A04218D004F58064A04216D09C
:1040D80004F58064A04214D004F58064A0423FF443
:1040E80039AF0A2439E7012437E7022435E70324E6
:1040F80033E7042431E705242FE706242DE70724B6
:104108002BE7082429E703B0F0BD00BF00040058DE
:1041180000440258000002580AB18161704709043E
:10412800816170472030054B53F82020044B9A4298
:1041380001D0012070470020704700BF006402587A
:104148000003008041F44071014B43F82010704790
:104158000064025838B50446224BDB6803F00703B5
:10416800062B07D01F4BDB6803F03F03834236D092
:10417800012038BD1B4AD36823F03F030343D360B3
:1041880000F094F80546174B5B6813F4005F07D1FD
:1041980000F08CF8431BB3F57A7FF4D90120E8E7E7
:1041A8002E2C18BF1E2C08D02D2C14BF0023012341
:1041B8001D2C02D00BB90020DBE700F077F804468D
:1041C800084BDB6813F4803F07D100F06FF8001B41
:1041D800B0F57A7FF4D90120CBE70020C9E70020A9
:1041E800C7E700BF00480258104B1B780BB90120E5
:1041F800704710B504464FF47A70B0FBF3F30C4ADD
:104208001068B0FBF3F0FEF723F868B90F2C01D95A
:1042180001200AE0002221464FF0FF30FDF7E2FFBF
:10422800044B1C60002000E0012010BD6800002045
:10423800700000206C00002010B50320FDF7C0FFBF
:10424800FEF774FB0F498B69C3F303230E4AD35C53
:1042580003F01F03D8408B6903F00F03D35C03F00E
:104268001F0320FA03F3094A1360094B1860002062
:10427800FFF7BAFF10B10124204610BD0446FDF730
:1042880041FFF9E700440258A068010874000020C3
:1042980070000020034B1B78034A11680B4413601D
:1042A800704700BF6800002010090020014B186803
:1042B800704700BF1009002038B50446FFF7F6FF25
:1042C8000546B4F1FF3F02D0044B1B781C44FFF7AE
:1042D800EDFF401BA042FAD338BD00BF68000020A4
:1042E800014B1868000C70470010005C2D4BD3F888
:1042F800882042F47002C3F888201A6942F010023C
:104308001A61294B1B6803F00F03062B06D8264AAF
:10431800136823F00F0343F007031360234B1A6855
:1043280042F001021A6000221A611968204A0A4004
:104338001A601D4B1B6813F0080F06D01A4A136841
:1043480023F00F0343F007031360184B00229A6110
:10435800DA611A62174999621749D96217491963CC
:104368005A639963DA6319645A64196821F48021DD
:1043780019601A664FF0B042D2F8E43043F4804333
:10438800C2F8E4300E4B1A680E4B1340B3F1005FCD
:1043980003D20D4B0122C3F808210C4B43F2D20281
:1043A8001A60704700ED00E00020005200440258F7
:1043B8007FEDF6EA000202020000FF01800201011F
:1043C8000010005C0000FFFF008000510040005218
:1043D800026852E8003F23F4907342E80031002954
:1043E800F6D1026802F1080353E8001F0D4B0B4099
:1043F800083242E800310029F3D1C36E012B06D000
:104408002023C0F88C300023C366436770470268D6
:1044180052E8003F23F0100342E800310029F6D1AA
:10442800EEE700BFFEFFFFEF70B586B004460168F7
:1044380083680269134342691343C26913430868D6
:10444800884A024013430B602268536823F44053A0
:10445800E1680B435360A1692268834B9A4201D0FB
:10446800236A19439068814B03400B439360226889
:10447800D36A23F00F03616A0B43D36222687C4B33
:104488009A4221D07B4B9A4200F08C807A4B9A4218
:1044980000F0A280794B9A4200F0B580784B9A429E
:1044A80000F0C880774B9A4200F0F480764B9A422D
:1044B80000F01981754B9A4200F02C816A4B9A42A0
:1044C80000F03F81802333E0714B5B6D03F03803CC
:1044D800282B65D8DFE813F0290064006400640025
:1044E80064006400640064004D01640064006400BA
:1044F80064006400640064002B00640064006400CD
:1045080064006400640064005E0064006400640089
:104518006400640064006400600064006400640077
:1045280064006400640064006200012300E0082362
:104538004D498A4200F02F81E069B0F5004F00F044
:10454800AF81202B00F20782202B00F25182DFE896
:1045580013F01E0224024F024F0227024F024F029D
:104568004F022C024F024F024F024F024F024F02DE
:104578004F0231024F024F024F024F024F024F02C9
:104588004F024F024F024F024F024F024F024F029B
:104598004F023D021023CBE72023C9E74023C7E79A
:1045A8008023C5E73A4B5B6D03F00703052B11D851
:1045B800DFE813F00600E10008000A000C000E0016
:1045C8000023B5E70823B3E71023B1E72023AFE7BB
:1045D8004023ADE78023ABE72D4B5B6D03F007036A
:1045E800052B0ED8DFE803F003C90507090B0023E4
:1045F8009EE708239CE710239AE7202398E74023A7
:1046080096E7802394E7224B5B6D03F00703052BA5
:104618000ED8DFE803F003B40507090B002387E78A
:10462800082385E7102383E7202381E740237FE7DA
:1046380080237DE7164B5B6D03F00703052B0ED82F
:10464800DFE803F0039F0507090B002370E7082341
:104658006EE710236CE720236AE7402368E780238E
:1046680066E700BFF369FFCF000C0058FFF4FF11A5
:10467800001001400044004000480040004C004049
:10468800005000400014014000780040007C0040C9
:10469800004402587D4B5B6D03F03803282B20D86B
:1046A800DFE803F0151F1F1F1F1F1F1F711F1F1F8C
:1046B8001F1F1F1F171F1F1F1F1F1F1F191F1F1F10
:1046C8001F1F1F1F1B1F1F1F1F1F1F1F1D00012331
:1046D8002EE708232CE710232AE7202328E7402386
:1046E80026E7802324E7694B5B6D03F00703052B5E
:1046F8000ED8DFE803F0034A0507090B002317E784
:10470800082315E7102313E7202311E740230FE7B9
:1047180080230DE75D4B5B6D03F00703052B0ED877
:10472800DFE803F003350507090B002300E708233A
:10473800FEE61023FCE62023FAE64023F8E6802371
:10474800F6E603F50E339B6D03F00703052B0ED831
:10475800DFE803F0031F0507090B0223E8E6082337
:10476800E6E61023E4E62023E2E64023E0E68023A1
:10477800DEE60423DCE60423DAE60423D8E6042391
:10478800D6E60423D4E60423D2E60423D0E60423A1
:10479800CEE60423CCE6202B27D8022BC0F01A81C2
:1047A800023B1E2B00F21881DFE813F050001601BF
:1047B80056001601160116015B00160116011601B6
:1047C80016011601160116016000160116011601E0
:1047D8001601160116011601160116011601160119
:1047E80016011601160116016C00402B2CD14FF44E
:1047F8000040626A264B33F81220B0FBF2F365687A
:1048080005EB4501994200F2E980B3EB053F00F260
:10481800E7800026334631460CF042FC090241EAA3
:10482800106100026B08C0182A46334641F10001A6
:104838000CF036FCA0F54072164B9A4200F2D2807A
:104848002368D8603046D4E00120D2E0FFF74AF967
:104858000028CED10020CCE003A8FFF755F9049832
:10486800F6E76846FFF74CFA0198F1E7074B1B6833
:1048780013F0200F08D0054B1B68C3F3C10306488B
:10488800D840E5E70548B4E70348B2E700440258D2
:10489800B0680108FFFC0F000090D00300093D003C
:1048A800202B15D8202B00F29F80DFE803F031374A
:1048B8009D9D3A9D9D9D3F9D9D9D9D9D9D9D449D3A
:1048C8009D9D9D9D9D9D9D9D9D9D9D9D9D9D5000FA
:1048D800402B1BD1626A4D4B33F81230B0FBF3F01A
:1048E8006268530803EB4000B0FBF2F0A0F110023D
:1048F8004FF6EF739A4279D883B223F00F03C0F3CF
:10490800420018432368D860002072E0012070E05C
:10491800FEF772FA0028DDD100206AE0FEF77EFA81
:10492800F8E703A8FFF7F0F80498F3E76846FFF7FD
:10493800E7F90198EEE7364B1B6813F0200F08D013
:10494800334B1B68C3F3C1033248D840E2E732480F
:10495800C0E73048BEE7402B17D14FF40040626AE9
:104968002A4B33F81230B0FBF3F0636800EB5300C6
:10497800B0FBF3F0A0F110024FF6EF739A4242D861
:10498800236880B2D860002033E0012031E0FEF7D0
:1049980033FA0028E3D100202BE0FEF73FFAF8E7CE
:1049A80003A8FFF7B1F80498F3E76846FFF7A8F9FA
:1049B8000198EEE7164B1B6813F0200F08D0144B34
:1049C8001B68C3F3C1031348D840E2E71248C6E79F
:1049D8001048C4E701200CE001200AE0012008E0AB
:1049E800012006E0012004E0012002E0012000E0AF
:1049F80001200123A4F86A30A4F868300023636713
:104A0800A36706B070BD0120F3E700BFB0680108D6
:104A1800004402580090D00300093D00836A13F057
:104A2800010F06D00268536823F40033C16A0B43B0
:104A38005360836A13F0020F06D00268536823F4A8
:104A48008033016B0B435360836A13F0040F06D065
:104A58000268536823F48023416B0B435360836AD5
:104A680013F0080F06D00268536823F40043816BE3
:104A78000B435360836A13F0100F06D002689368E3
:104A880023F48053C16B0B439360836A13F0200FA8
:104A980006D00268936823F40053016C0B439360BB
:104AA800836A13F0400F0AD00268536823F4801316
:104AB800416C0B435360436CB3F5801F0BD0836A82
:104AC80013F0800F06D00268536823F40023C16CEA
:104AD8000B43536070470268536823F4C003816C2A
:104AE8000B435360EBE72DE9F84305460F4616469E
:104AF8009946DDF820802C68E46937EA04030CBF86
:104B08004FF0010C4FF0000CB44532D1B8F1FF3F23
:104B1800F1D0FFF7CBFBA0EB090040452CD8B8F14A
:104B2800000F2BD02B681A6812F0040FE3D0DA6953
:104B380012F0080F11D1DA6912F4006FDBD04FF4CC
:104B480000621A622846FFF743FC2023C5F890301C
:104B5800002385F8843003200CE008241C622846D2
:104B6800FFF736FCC5F89040002385F88430012013
:104B780000E00020BDE8F8830320FBE70320F9E705
:104B88002DE9F04182B01E46D0F88830202B5BD149
:104B980004460D469046002A18BF002901D101207D
:104BA80053E00023C0F890302123C0F88830FFF785
:104BB8007DFB0746A4F85480A4F85680A368B3F593
:104BC800805F02D04FF0000816E0236943B34FF02E
:104BD800000811E02023C4F88830032035E038F8B5
:104BE800023B2268C3F308039362B4F8562092B2DA
:104BF800013A92B2A4F85620B4F856309BB293B159
:104C080000963B46002280212046FFF76CFF0028D3
:104C1800E0D1002DE3D015F8012B23689A62E4E770
:104C2800A8460025E8E700963B460022402120469A
:104C3800FFF759FF18B92023C4F8883005E020236E
:104C4800C4F88830032000E0022002B0BDE8F081FB
:104C58002DE9F04383B01E46D0F88C30202B7ED14E
:104C680004460D469046002A18BF002901D10120AC
:104C780076E00023C0F890302222C0F88C20C3666A
:104C8800FFF714FB0746A4F85C80A4F85E80A368CD
:104C9800B3F5805F06D0A3B9226972B9FF22A4F8E0
:104CA800602014E0226922B940F2FF12A4F86020C3
:104CB8000DE0FF22A4F8602009E07F22A4F860201C
:104CC80005E0B3F1805F0AD00022A4F86020B4F8B0
:104CD8006080B3F5805F0CD04FF0000924E02269B2
:104CE8001AB97F22A4F86020F1E73F22A4F86020D7
:104CF800EDE7236913B14FF0000915E0A946002537
:104D080012E02023C4F88C30032029E023685A6A73
:104D18005FFA88F3134005F8013BB4F85E2092B2BD
:104D2800013A92B2A4F85E20B4F85E309BB28BB11F
:104D380000963B46002220212046FFF7D4FE00289B
:104D4800DFD1002DE2D123685B6A08EA030329F862
:104D5800023BE2E72023C4F88C30002000E0022068
:104D680003B0BDE8F08330B583B004460023C0F833
:104D78009030FFF79BFA05462268126812F0080F78
:104D880010D123681B6813F0040F28D12023C4F81E
:104D98008830C4F88C300020E066206784F88400EE
:104DA80003B030BD6FF07E430093034600224FF4FA
:104DB80000112046FFF797FE0028E2D0226852E84B
:104DC800003F23F0800342E800310029F6D1202378
:104DD800C4F88830002384F884300320E0E76FF0BB
:104DE8007E4300932B4600224FF480012046FFF7B4
:104DF8007AFE0028CAD0226852E8003F23F4907354
:104E080042E800310029F6D1226802F1080353E88C
:104E1800003F23F00103083242E800310029F3D1B2
:104E28002023C4F88C30002384F884300320B7E7AB
:104E380078B310B50446D0F888300BB32423C4F8EF
:104E480088302268136823F0010313602046FFF7B7
:104E5800EBFA012813D0A36ABBB92268536823F47C
:104E6800904353602268936823F02A039360226872
:104E7800136843F0010313602046FFF774FF10BD69
:104E880080F88430FDF750F9D8E72046FFF7C6FDD3
:104E9800E3E7012070470000436E2BB90123A0F817
:104EA8006A30A0F86830704730B403689A68C2F373
:104EB80042629968490F094D6B5C1B01084C615CA3
:104EC80093FBF1F3A0F86A30AB5C1B01A25C93FB87
:104ED800F2F3A0F8683030BC704700BFD068010812
:104EE800C868010890F88430012B18D0012380F895
:104EF80084302423C0F8883003681A68196821F0C0
:104F08000101196022F000520023436601680A601B
:104F18002022C0F8882080F8843018467047022084
:104F2800704738B590F88430012B1DD00446012312
:104F380080F884302423C0F8883003681D681A6814
:104F480022F001021A600268936823F06043194353
:104F58009160FFF7A1FF23681D602023C4F8883003
:104F6800002084F8840038BD0220FCE738B590F8AA
:104F78008430012B1DD00446012380F8843024237B
:104F8800C0F8883003681D681A6822F001021A60A8
:104F98000268936823F0606319439160FFF77CFF10
:104FA80023681D602023C4F88830002084F884001A
:104FB80038BD0220FCE70000DFF834D0FFF796F98F
:104FC8000C480D490D4A002302E0D458C45004335C
:104FD800C4188C42F9D30A4A0A4C002301E0136032
:104FE8000432A242FBD3FBF797F9FCF77BFF70472B
:104FF800000002200000002050080020F0A703084D
:105008005008002008160020FEE770474168002974
:105018001CBF0068FCF772B97047704780B56F46CF
:105028008AB046F6301102A8C0F601010B2201F041
:10503800FBF80298D8B946F6301902AD4FF00008CF
:10504800C0F60109DDE903640B213046FCF718FDC1
:10505800002C86F800801CBF3046FCF74FF9284624
:1050680049460B2201F0E0F802980028EAD002AB8A
:105078000DF1180C0FCB8CE80F0046F62010C0F687
:10508800010046F60413009046F6D80006AAC0F6BA
:105098000100C0F601032B2109F0ADFAFEDEF0B5E0
:1050A80003AF4DF804BDADF6082D02FB01F30190E6
:1050B8000BACCDE9091246F6541208A9C0F6010254
:1050C80098081423029008200790042006902020B6
:1050D800059046F63C10C0F60100049001A8039024
:1050E80003A808900220009020460FF06BFA40F6C3
:1050F80014102146C2F2000040F6CC120BF030FE2C
:1051080041F20560C2F2000000780A20FCF7EEF8D0
:1051180058B3044640F66420208146F67300C6F66C
:105128006F402146606046F65400C6F272500A226B
:105138002060A7F1200001F077F857F8200CC8B9D3
:1051480057E907560A212846FCF79AFC0020002E4A
:1051580028701CBF2846FCF7D1F82046FCF7CEF88B
:105168000DF6082D5DF804BBF0BD01200A2101F001
:105178000CF8FEDEA7F120030DF12C0C0FCB8CE808
:105188000F0046F62010C0F6010046F60413009002
:1051980046F6D8000BAAC0F60100C0F601032B2181
:1051A80009F029FAFEDEF0B503AF2DE9000FADF6E0
:1051B800F41D02FB01F30790CDE90F1246F69C118E
:1051C8000DF1440B0DF5D162C0F60101CDE9021BCA
:1051D80040F61411C2F20001980846F654130890DC
:1051E80008200D9004200C9020200B9046F63C10CF
:1051F800C0F60100C0F601030A9007A8099009A8A3
:105208000E900020CDF88406CDF8A80946F6E010E7
:10521800CDE9003246F68412C0F601000EAB0490C8
:10522800C0F60102022001F049FEDDF8841606915D
:105238000029084640D0ABF110094FF000080025BE
:1052480012E0002457E9160C210157E9142301350F
:105258004BF801000BEB041008F11008C0E901C27B
:10526800C3600698854227D0642D00F0B3800BEB0D
:1052780005102B01D0E90112002DC068C2465BF869
:1052880003302C4647E9142047E91631D9D009EBF9
:105298000A01A7F1580001F0B5FF0028D2D00BEBA6
:1052A8000A00013C10E94E0004304BF80A10BAF12C
:1052B800100A4CC0EBD1C4E741F2E02446F6E011F5
:1052C80046F62423C2F2000411A8C0F60101C0F674
:1052D8000103224601F06CFFDDF8840600260690E3
:1052E800002871D004F1040AA7F138004FF0000932
:1052F80004300590D4F8200348457DD9B9F1640FEE
:1053080071D040F28F501AED010AC0F601009AEDF3
:10531800001A47F8240CA7F1580147F82C0CA7F1FC
:10532800400047F8300C46F67020C0F60100A7F19F
:10533800300547F8580C059847F8280C032047F81B
:10534800540C022047F84C0CA7F1640047F8505C55
:1053580047F8486C07ED0F1A07ED100A07ED0D1A0C
:1053680007ED0E0A01F045F857E9194B284657F89A
:105378005C6C2146324600F057FF57F8300C002885
:1053880046D157E90B8531464046FCF779FB0020AA
:10539800002D88F800004FF000061CBF4046FBF7C0
:1053A800ADFFBBF1000F1CBF2046FBF7A7FF069817
:1053B80041F2E02409F101090AF1080A4845C2F25C
:1053C800000497D1DDF8846630460DF6F41DBDE87B
:1053D800000FF0BD4AF27822C0F60302642064216F
:1053E80009F06BF8FEDE4AF2A822C0F60302642038
:1053F800642109F062F8FEDE4AF288204AF2982217
:10540800C0F60300C0F603020D2109F03FF8FEDEE6
:10541800A7F13003A7F1580C0FCB8CE80F0046F624
:105428002010C0F6010046F60413009046F6D80096
:10543800A7F15802C0F60100C0F601032B2109F0BC
:10544800DAF8FEDEF0B503AF2DE9000F81B02DEDDF
:10545800088BA2B000EE100A0C46B0EE008AB8EE37
:10546800409AF0EE480AB0EE490A01F0BFFBB0EEF0
:1054780040AA00EE104AF0EE480AB8EE40BAB0EE84
:105488004B0A01F0B3FB3AEE000A01F0ADFBF0EE77
:10549800400A02A8B6EE000A29EE001A6BEE001ABE
:1054A8009FED490A02F098FE9FED490A12ACDFED24
:1054B800470AB0EE401A2046F0EE401A02F052FDBC
:1054C8009DF84800002869D104F1040C06A9BCE83D
:1054D8007D007DC19CE87D007DC141F2E020C2F2E3
:1054E8000000D0F820B3BBF1000F3BD040F27808A1
:1054F800051D12AC1FAE0DF1180A4FF00009C2F2DB
:10550800000804E009F101090835CB452AD041F229
:10551800E020C2F20000D0F82003484532D9B9F1A2
:10552800640F26D015ED010A02A9D5ED000A204620
:1055380002F03AFE30465146224602F0CDFC304693
:1055480001F0A8F9D8F820036328DBD808EBC000DD
:1055580080ED000AD8F82013C0ED010A481CC8F8ED
:105568002003CFE722B0BDEC088B01B0BDE8000FE7
:10557800F0BD4AF2A8226420C0F60302642108F0B4
:105588009CFFFEDE4AF288204AF29822C0F6030009
:10559800C0F603020D2108F079FFFEDE9DF84900F0
:1055A80046F6CC238DF8180046F6DC20C0F601003C
:1055B80006AA009046F68820C0F60100C0F601034E
:1055C800422109F018F8FEDE2C10A03EDB0FC93F7F
:1055D80000000000F0B503AF2DE9000F81B02DEDFC
:1055E800048BADF58D3D8EB0044648F62430C0F6E8
:1055F800030001F0C9F8F7EE000A0DF12C0848F68F
:10560800B42148F6E42248F2D133C0F60301C0F6CB
:105618000302C0F60003404602F08CFE14AE0021DF
:1056280006F12000002502F013F94EF6B82141F6E4
:105638009C1075504BF6D431C0F20100755048F6F5
:10564800F041755045F60C6135503044755042F6BE
:10565800287175504FF0FF31C0E90115C0E90351B9
:10566800C0E90515C0E907552595CDE923551495D9
:1056780002F02CFC204607ED120A02F029FB47E94C
:10568800160148F6C431042048F6B43C48F6A43262
:1056980048F68C33C0F60301C0F603030891C0F640
:1056A800030CA7F1580147F8400C47F8440CC0F622
:1056B8000302A7F1480040F29C34CDE9020240F20F
:1056C8007800CDE9006348F66C33CDE9041C48F650
:1056D80028319FED850AC2F20004C2F20000C0F62C
:1056E8000301C0F60303424607F83C5CA7F14405F2
:1056F800CDE9065402F0ECF8032840F08380D4F892
:10570800B0040A9000287BD004F104089FED778A42
:105718009FED779A00264FF00009D4F8B004484569
:1057280040F2D180B9F1640F00F0A280D8F80000EF
:10573800B0F5BC6F00F2A58045F69431A7F144049A
:10574800C0F6030101EBC00040F28F51189690EDAE
:10575800000AC0F6010190ED011A032080EE080A44
:10576800159048F6204047F8381CC0F603001694F8
:10577800149002201790A7F1480047E91010A7F1EC
:105788004C0047F8440CA7F1580014A981EE081AF8
:1057980020EE090A21EE091A07ED130A07ED121A7D
:1057A80000F027FE57E9165B204657F8506C29464B
:1057B800324600F039FD57F8440C00286AD157E901
:1057C800104A31462046FCF75BF90020BAF1000F79
:1057D80020704FF000061CBF2046FBF78FFDBBF181
:1057E800000F1CBF2846FBF789FD0A9840F29C343D
:1057F80009F1010908F10C084845C2F200048CD1EE
:1058080001202CE041F20560C2F200000078062079
:10581800FBF76CFD002862D0044640F66B20A080A0
:1058280047F25420C6F2613021462060A7F14400B7
:10583800062200F0F9FC57F8440C58BB57E91056FB
:1058480006212846FCF71CF90020002E28701CBFF2
:105858002846FBF753FD2046FBF750FD00200DF5C9
:105868008D3D0EB0BDEC048B01B0BDE8000FF0BD5E
:105878004AF2A8226420C0F60302642108F01DFE43
:10588800FEDE48F6084240F2E151C0F6030208F095
:1058980014FEFEDEA7F144030DF1500C0FCB8CE88B
:1058A8000F0046F62010C0F6010046F604130090DB
:1058B80046F6D80014AAC0F60100C0F601032B2151
:1058C80008F099FEFEDE4AF288204AF29822C0F6D5
:1058D8000300C0F603020D2108F0D8FDFEDE01200A
:1058E800062100F052FCFEDE88C3643ADB0F494013
:1058F80000003443F0B503AF2DE9000F81B02DED62
:10590800048BADF58D3D8CB09FEDA48A0DF12C086C
:105918009FEDA39A48F6B42120EE080A48F6E4223F
:1059280020EE881A0446C0F60301C0F6030240467A
:1059380080EE090AC1EE090A9FED9A1A02F0D2FD1B
:1059480012AE002106F12000002501F081FF4EF67D
:10595800B82141F69C1075504BF6D431C0F20100C5
:10596800755048F6F041755045F60C613550304495
:10597800755042F6287175504FF0FF31C0E9011596
:10598800C0E90351C0E90515C0E907552395CDE9DC
:105998002155129502F09AFA204607ED120A02F0F4
:1059A80097F947E91601042048F6C43148F68C33C4
:1059B80048F6B43CC0F60301C0F6030347F8400CB0
:1059C80047F8440CA7F1440048F6A4320891C0F601
:1059D800030CCDE90063A7F1480102AB40F29C3407
:1059E800CDE905C040F278009FED6F0AA7F1580E87
:1059F800C0F6030283E8064048F6283148F63843E3
:105A0800C2F20004C2F20000C0F60301C0F60303AC
:105A1800424607F83C5C079401F05AFF03287BD103
:105A2800D4F8B0040A90002875D004F104080026C0
:105A38004FF00009D4F8B004484540F28980B9F124
:105A4800640F73D0D8F80000B0F5BC6F77D845F66E
:105A58009431A7F14404C0F6030101EBC00040F201
:105A68008F51169690ED000AC0F6010190ED011ACB
:105A7800032080EE080A139048F6204047F8381CA7
:105A8800C0F603001494129002201590A7F1480064
:105A980047E91010A7F14C0047F8440CA7F158004B
:105AA80012A981EE081A20EE090A21EE091A07ED5B
:105AB800130A07ED121A00F09CFC57E9165B204602
:105AC80057F8506C2946324600F0AEFB57F8440CA4
